:020000040800F2
:1000000080070020A5060008790400087B0400088A
:100010007F04000883040008870400080000000033
:100020000000000000000000000000008B04000839
:100030008D040008000000008F04000891040008EF
:10004000BF060008BF060008BF060008BF0600087C
:10005000BF060008BF060008BF060008BF0600086C
:10006000BF060008BF060008BF060008BF0600085C
:10007000BF060008BF060008BF060008BF0600084C
:10008000BF060008BF060008BF060008BF0600083C
:10009000BF060008BF060008BF060008BF0600082C
:1000A000BF060008BF060008BF060008BF0600081C
:1000B000BF060008BF060008BF060008BF0600080C
:1000C000BF060008BF060008BF060008BF060008FC
:1000D000BF0600082F1E0008BF060008BF06000864
:1000E000BF060008BF060008BF060008BF060008DC
:1000F000BF060008BF060008BF060008BF060008CC
:10010000BF060008BF060008BF060008BF060008BB
:10011000BF060008BF060008BF060008BF060008AB
:10012000BF060008BF060008BF060008BF0600089B
:10013000BF060008BF060008BF060008BF0600088B
:10014000BF060008BF060008BF060008BF0600087B
:10015000BF060008BF060008BF060008BF0600086B
:10016000BF060008BF060008BF060008BF0600085B
:10017000BF060008BF060008BF060008BF0600084B
:10018000BF060008BF06000800F002F800F049F8BA
:100190000AA090E8000C82448344AAF10107DA45E2
:1001A00001D100F03EF8AFF2090EBAE80F0013F0EB
:1001B000010F18BFFB1A43F001031847C0310000BC
:1001C000E0310000103A24BF78C878C1FAD852074D
:1001D00024BF30C830C144BF04680C6070470000C1
:1001E0000023002400250026103A28BF78C1FBD840
:1001F000520728BF30C148BF0B607047662903F023
:100200007180002070471FB503F067F802F09AFA7A
:1002100004000020002102F0D3FFE0601FBD10B5F4
:1002200010BD02F08BFB1146FFF7EDFF00F0BBF8AD
:1002300002F0A9FB03B4FFF7F2FF03BC01F018FCC6
:1002400070B52DED028B04460D46012275A12046A6
:1002500001F0FEFF00284CD17349744801F001FD04
:100260000F21082001F08EFF7149088008460088A0
:1002700000EE100AB8EE400ADFED6E0A80EE201A9A
:100280006D4880ED001A90ED000ADFED6C0A20EE5B
:10029000200A80ED000A006802F0AEFF41EC180B66
:1002A00053EC182B66A1684801F08AFF5F4800787C
:1002B00001F07AFD5C48007801F076FD0221624889
:1002C00001F09FFD00BF4021604801F0EFFA0028D7
:1002D000F9D00D215D4801F039FA00BF40215B489B
:1002E00001F0E4FA0028F9D00A21584801F02EFA6A
:1002F00056E0012256A1204601F0AAFFB0B95548A8
:10030000007838B95448008801F0F4FD01205149C3
:10031000087045E04F480078022841D14F480088D6
:1003200001F0E8FD01204B49087039E001224CA1A1
:10033000204601F08DFFB8B946480078012807D162
:100340004548008801F051FE00204249087027E02E
:1003500040480078022823D14248008801F045FE39
:1003600000203C4908701BE001223FA1204601F01B
:100370006FFFA8B93748007838B93A48008801F0CB
:10038000B9FD0220334908700AE03248007801289C
:1003900006D13248008801F028FE02202D4908705D
:1003A000BDEC028B70BD00244FF4A06000F09AF900
:1003B000A82001F0DBFA01F0A3FC01F0B7FB01F08B
:1003C00067FB01F07BFD01F091FE0AE02748006821
:1003D00008B9012000E0002024490860FA2001F05B
:1003E00027FB01F06AFC0028F0D119E01F480068E3
:1003F00008B9012000E000201C4908604FF4FA70A1
:1004000001F016FB1A48008800F4004040B118487B
:10041000047821461748FFF713FF0020144908808D
:10042000E4E7000041000000070000200600002073
:1004300008000020000080450C00002000007A44E5
:100440002566090A00000000440000200010014059
:100450006F000000100000200000002004000020B9
:100460006300000002000020680000009C0240427F
:100470003C00002058000020704700BFFEE700BF8E
:10048000FEE700BFFEE700BFFEE77047704770471A
:10049000704700000CB5002001900090764800687D
:1004A00040F480307449086000BF7348006800F46D
:1004B000003000900198401C0190009818B90198F4
:1004C000B0F5A04FF1D16C48006800F4003010B1D5
:1004D0000120009001E0002000900098012846D102
:1004E00065484030006840F0805063494031086002
:1004F0006248006840F44040604908605E48083047
:1005000000685D49083108600846006840F4004012
:1005100008600846006840F4A05008605848091F69
:100520000860081F006840F08070091F086000BF65
:100530005148006800F000700028F9D040F20570C2
:10054000504908604C480830006820F003004A49D0
:10055000083108600846006840F00200086000BFEB
:1005600045480830006800F00C000828F8D10CBDA0
:1005700010B54548006840F47000434908603E48A3
:10058000006840F001003C49086000203A49083109
:100590000860394800683D490840374908603C48D0
:1005A000091D0860081F006820F48020091F0860EA
:1005B000002031490C310860FFF76CFF4FF00060FC
:1005C00031498039086010BD70B500200022022337
:1005D00000240221284D08352D6805F00C0020B1BB
:1005E000042806D0082834D107E02A4D2A4E356069
:1005F00033E02A4D284E35602FE01F4D2D1D2D680C
:10060000C5F380541C4D2D1D2D6805F03F0154B1DC
:10061000224DB5FBF1F5184E361D3668C6F3881627
:1006200005FB06F209E01B4DB5FBF1F5124E361D38
:100630003668C6F3881605FB06F20F4D2D1D2D6892
:10064000C5F301456D1C6B00B2FBF3F5124E35602E
:1006500003E0104D104E356000BF00BF064D083559
:100660002D68C5F303150E4E705D0B4D2D68C5400A
:10067000094E356070BD0000003802400070004037
:1006800008544007003C024088ED00E0FFFFF6FE02
:10069000103000240024F4001400002000127A001E
:1006A000180000200948804709480047FEE7FEE798
:1006B000FEE7FEE7FEE7FEE7FEE7FEE7FEE7FEE712
:1006C00004480549054A064B7047000071050008BB
:1006D000890100088001002080070020800300209D
:1006E0008003002032490143324A1160704770B5DF
:1006F000002100230F22C4781CB32E4C246804F47C
:10070000E064C4F5E064C4F30721C1F10404E3B27A
:100710000A4144789C40E1B28478144021430C079C
:10072000210E254C05786155047804F01F0501243D
:10073000AC4005786D11AD0005F1E025C5F800412C
:1007400009E0047804F01F050124AC401B4D067835
:10075000761145F8264070BD194A0A400243154BF0
:100760001B1F1A60704739B1124A121D12680243EA
:10077000104B1B1D1A6006E00E4A121D12688243C0
:100780000C4B1B1D1A607047042808D14FF0E02164
:10079000096941F004014FF0E022116107E04FF0D8
:1007A000E021096921F004014FF0E0221161704756
:1007B0000000FA050CED00E000E400E080E100E05C
:1007C00080FFFF1F10B50121080200F000FE00218C
:1007D0004FF4807000F0FBFD10BD30B502460020E4
:1007E00000235068F84C20400D790C6844EA052439
:1007F000204350609068F54C2040D1E903542C43CD
:100800008D682C434D7944EA450420439060D06ABA
:1008100020F470000C7D641EE4B2234340EA0350D0
:10082000D06230BD00210160017141718160C16001
:1008300001610121017570470021E54A1168E54A0F
:100840001140D0E900231A4383681A43C3681A434E
:100850001143E14AC2F8041370470021016041606E
:100860008160C160704721B1826842F001028260FC
:1008700003E0826822F00102826070470A4600218C
:100880004168D64B19401143416070474162826212
:1008900070470A460021416821F01F011143416061
:1008A000704738B1CA49096841F40001CA4AC2F820
:1008B000041306E0C649096821F40001C64AC2F8DB
:1008C0000413704738B1C249096841F48001C24A33
:1008D000C2F8041306E0BE49096821F48001BE4A4B
:1008E000C2F804137047F0B504460D4600200021FD
:1008F000092D11DDE068A5F10A0606EB460707267B
:1009000006FA07F18843A5F10A0606EB460603FA44
:1009100006F10843E0600CE0206905EB4507072677
:1009200006FA07F1884305EB450603FA06F108438A
:100930002061072A0FDA606B561E06EB86071F261A
:1009400006FA07F18843561E06EB860605FA06F1FD
:100950000843606322E00D2A0FDA206BD61F06EBF6
:1009600086071F2606FA07F18843D61F06EB860680
:1009700005FA06F10843206310E0E06AA2F10D06D3
:1009800006EB86071F2606FA07F18843A2F10D063B
:1009900006EB860605FA06F10843E062F0BD8168C1
:1009A00041F0804181607047014600208A6802F072
:1009B00080420AB1012000E00020704721B1826826
:1009C00042F48062826003E0826822F48062826086
:1009D000704721B1826842F00202826003E08268BF
:1009E00022F002028260704710B50A4600210023FF
:1009F000416821F46041531E41EA4331416010BD1A
:100A000021B1426842F40062426003E0426822F48D
:100A10000062426070470146C86C80B270476C4803
:100A2000001D0068704721B1826842F480728260C4
:100A300003E0826822F480728260704721B182688C
:100A400042F40072826003E0826822F400728260E5
:100A5000704738B15E49096841F400515E4AC2F8F6
:100A6000041306E05A49096821F400515A4AC2F8B1
:100A700004137047F0B504461546002000220026F6
:100A8000092911DDE068A1F10A0707EB470C0727E8
:100A900007FA0CF29043A1F10A0707EB470703FAA4
:100AA00007F21043E0600CE0206901EB410C0727DE
:100AB00007FA0CF2904301EB410703FA07F21043E7
:100AC0002061A06BC0F30156EF1C06F1010CA7EBEF
:100AD0000C0707EB870C1F2707FA0CF29043EF1C5B
:100AE00006F1010CA7EB0C0707EB870701FA07F2E9
:100AF0001043A063F0BD10B50A4600210023816BAE
:100B000021F44011531E41EA0351816310BD08B521
:100B1000002300930090009B0B440093009B1A60FD
:100B200008BD0A460021816821F4702111438160CB
:100B300070470A460021816821F440111143816009
:100B40007047816841F48001816070470146002050
:100B50008A6802F480020AB1012000E00020704798
:100B600021B1426842F48062426003E0426822F4AC
:100B700080624260704721B1426842F48052426014
:100B800003E0426822F480524260704708B5024692
:100B900000200090009201F12800009B1844009072
:100BA0000098006880B208BD10B50B460021D9B28C
:100BB000012404FA01F11AB144680C43446002E0D4
:100BC00044688C43446010BDFFFEFFFCFDF7FFC08E
:100BD00004230140E030FCFF00200140FFFD3FFF07
:100BE0000246002013680B400BB1012000E00020FA
:100BF0007047CA430260704770B502460020002368
:100C000000240B12556801268E4005EA060415687B
:100C10001D4015B10CB1012000E0002070BD002284
:100C20000A12D3430360704710B5044698488442C3
:100C300008D10121084600F086FB0021012000F0C8
:100C400082FB76E09348844208D10121022000F023
:100C50007AFB0021022000F076FB6AE08E48844295
:100C600008D10121042000F06EFB0021042000F0D7
:100C70006AFB5EE08948844208D10121082000F027
:100C800062FB0021082000F05EFB52E084488442B1
:100C900008D10121102000F056FB0021102000F0A7
:100CA00052FB46E07F48844208D10121202000F019
:100CB0004AFB0021202000F046FB3AE07A488442BB
:100CC00008D10121402000F03EFB0021402000F02F
:100CD0003AFB2EE07548844208D10121802000F0C3
:100CE00032FB0021802000F02EFB22E0704884427D
:100CF00008D10121801500F026FB0021A01500F08D
:100D000022FB16E06B48844208D10121401500F017
:100D10001AFB0021601500F016FB0AE066488442C9
:100D200007D10121001500F00EFB0021201500F075
:100D30000AFB10BDF0B50A4600210023002400BFC5
:100D40003DE0012505FA01F3156805EA03049C421C
:100D500034D105684F000326BE40B54305601579C0
:100D60004E00B5400668354305601579012D02D067
:100D70001579022D16D185684F000326BE40B54374
:100D8000856055794E00B540866835438560456875
:100D900001268E40B5434560456896798E40B6B2CF
:100DA00035434560C5684F000326BE40B543C56066
:100DB000D5794E00B540C6683543C560491C102939
:100DC000BFD3F0BD4FF6FF71016000210171417189
:100DD0008171C171704708B54FF480320092009A5A
:100DE0000A430092009AC261C161009AC261C2695D
:100DF0000092C269009208BD0246002013690B40B0
:100E00000BB1012000E0002070470146086980B264
:100E100070470246002053690B400BB1012000E0EF
:100E2000002070470146486980B2704701837047CF
:100E3000418370470AB1018300E0418370474161FB
:100E4000704742694A4042617047F0B50023002470
:100E50004D07ED0E02FA05F3CE1000F1200555F80E
:100E600026504E07F70E0F26BE40B543CF1000F1B7
:100E7000200646F82750CE1000F1200555F82650E0
:100E800045EA0304CE1000F1200545F82640F0BDE8
:100E9000000002400004024000080240000C024032
:100EA000001002400014024000180240001C0240E2
:100EB000002002400024024000280240F948006857
:100EC00040F00100F74908600020F6490831086049
:100ED000F4480068F4490840F2490860F348091DE5
:100EE0000860F348EF4984310860F0481038091D64
:100EF0000860EC48006820F48020EA49086000207F
:100F0000E8490C310860E7498C31086070470021DE
:100F1000E44A921C117011460870704710B50146E2
:100F20000022002300204A11012A02D1DD4C23684F
:100F300008E0022A03D1DB4C7034236802E0D94C6C
:100F40007434236801F01F02012494401C400CB14A
:100F5000012000E0002010BD38B5002000900024E2
:100F6000002500BF3120FFF7D9FF05460098401C3F
:100F700000900098B0F5A04F01D0002DF2D03120A4
:100F8000FFF7CCFF08B1012400E00024204638BD63
:100F900001460020C34A106820F0F80040EAC10072
:100FA00010607047C349086070470021BD4A703225
:100FB00011701170012802D004280AD104E0012127
:100FC000B84A7032117005E00521B64A70321170CE
:100FD00000E000BF00BF7047B7490860704770B5B8
:100FE000049C41EA82150126C6EB530645EA0645F4
:100FF000054345EA0465AB4E361D356070BDAD490D
:1010000008667047820142EA0172A64B84331A6077
:101010007047A8498866704710B5830143EA0163A9
:1010200043EA02739F4C8834236010BDA1490867CE
:101030007047A049C864704702460020994B0833A6
:10104000186820F0EC6042EA01031843954B08331E
:101050001860704702460020924B0833186820F051
:10106000784042EA010318438E4B083318607047FA
:10107000014600208B4A0832106820F00300084324
:101080001060704787480830006800F00C00704717
:1010900001460020834A0832106820F0F00008431F
:1010A00010607047014600207E4A0832106820F424
:1010B000E05008431060704701460020794A08322A
:1010C000106820F4604040EAC10010607047F0B53D
:1010D000002100220024022500260223714F083738
:1010E0003F6807F00C0121B1042905D0082937D148
:1010F00005E0724F076036E0714F076033E0694FDB
:101100003F1D3F68C7F38056664F3F1D3F6807F09D
:101110003F036EB16A4FB7FBF3F7DFF888C10CF1FC
:10112000040CDCF800C0CCF3881C07FB0CF40CE0CA
:10113000624FB7FBF3F7DFF86CC10CF1040CDCF87D
:1011400000C0CCF3881C07FB0CF4564F3F1D3F68D2
:10115000C7F301477F1C7D00B4FBF5F7076002E091
:10116000564F076000BF00BF4E4F08373F6807F07B
:10117000F0010909534F7A5C0768D7404760494F2F
:1011800008373F6807F4E051890A4E4F7A5C476898
:10119000D7408760434F08373F6807F46041490BE9
:1011A000484F7A5C4768D740C760F0BD002100F423
:1011B0004072B2F5407F0AD13A4A0832116821F4F0
:1011C000F811414A02401143364A08321160354A4B
:1011D00070321268C0F30B031A43324B70331A603B
:1011E00070473549443908607047334940390860D1
:1011F000704736490860704701460020294A8C3202
:10120000106820F01F004A1E1043264A8C321060DE
:10121000704701460020234A8C32106820F4F850B1
:101220004A1E40EA02201F4A8C3210607047014675
:1012300000201C4A8C32106820F4401008431060D3
:10124000704701460020174A8C32106820F4400095
:1012500008431060704701460020124A8C32106823
:1012600020F4403008431060704719490860704707
:1012700039B10C4A3032126802430A4B30331A60DB
:1012800006E0084A303212688243064B30331A6057
:101290007047F9B1034A343212680243014B3433C8
:1012A0001A601CE000380240FFFFF6EA103000240C
:1012B0000030002000004742800E47420024F40026
:1012C00000127A0028000020FFFCFF0F5C0147425B
:1012D000E01147428F4A126882438E4B1A60704772
:1012E00039B18C4A121D126802438A4B1B1D1A60C9
:1012F00006E0884A121D12688243864B1B1D1A6045
:10130000704739B1834A0C3212680243814B0C3367
:101310001A6006E07F4A0C32126882437D4B0C3320
:101320001A60704739B17B4A103212680243794B18
:1013300010331A6006E0774A103212688243754B08
:1013400010331A60704739B1724A243A1268024366
:10135000704B243B1A6006E06E4A243A12688243BE
:101360006C4B243B1A60704739B16A4A203A1268C4
:101370000243684B203B1A6006E0664A203A126836
:101380008243644B203B1A60704739B1614A1C3A72
:10139000126802435F4B1C3B1A6006E05D4A1C3A30
:1013A000126882435B4B1C3B1A60704739B1594A43
:1013B000143A12680243574B143B1A6006E0554A30
:1013C000143A12688243534B143B1A60704739B188
:1013D000504A103A126802434E4B103B1A6006E026
:1013E0004C4A103A126882434A4B103B1A607047CD
:1013F00039B1484A1C3212680243464B1C331A600A
:1014000006E0444A1C3212688243424B1C331A6085
:10141000704739B13F4A2032126802433D4B2033B6
:101420001A6006E03B4A203212688243394B20336F
:101430001A60704739B1374A243212680243354B7B
:1014400024331A6006E0334A243212688243314B57
:1014500024331A60704739B12E4A2C321268024385
:101460002C4B2C331A6006E02A4A2C321268824335
:10147000284B2C331A60704739B1264A3032126833
:101480000243244B30331A6006E0224A303212689D
:101490008243204B30331A607047012808D11D4920
:1014A0003C31096841F008011A4A3C32116007E0FA
:1014B00018493C31096821F00801164A3C32116094
:1014C000704739B1134A273A12780243114B273B30
:1014D0001A7006E00F4A273A127882430D4B273BD9
:1014E0001A7070470B484030006840F0807009491E
:1014F00040310860704701460020064A283A1268C9
:101500000A400AB1012000E0002070470149263955
:10151000087070473438024010B50446FA488442D7
:1015200008D101211020FFF752FF00211020FFF702
:101530004EFF57E0F548844209D101214804FFF7E6
:1015400035FF00214FF40030FFF730FF4AE0F0484C
:10155000844209D101218804FFF728FF00214FF4BC
:101560008020FFF723FF3DE0EA48844209D10121B2
:10157000C804FFF71BFF00214FF40020FFF716FF00
:1015800030E0E548844209D101210805FFF70EFF4C
:1015900000214FF48010FFF709FF23E0DF48844269
:1015A00008D101212020FFF712FF00212020FFF7A2
:1015B0000EFF17E0DA48844209D101218807FFF7BE
:1015C000F5FE00214FF08040FFF7F0FE0AE0D5481D
:1015D000844207D101214005FFF7E8FE00216005A4
:1015E000FFF7E4FE10BD2DE9FF4705460E46002437
:1015F000A14600BFA046B08900B100BF2C8A24F4E8
:101600004054F08804432C82AC8941F20C6084433E
:10161000B08831890843718908430443AC81AC8A9E
:1016200024F44074B0890443AC826846FFF74FFD50
:10163000B548854202D0B948854202D1DDF80C9008
:1016400001E0DDF80890A88900F4004040B109EB02
:10165000C90000EB091031684900B0FBF1F707E061
:1016600009EBC90000EB091031688900B0FBF1F704
:101670006420B7FBF0F004012009642101FB10781D
:10168000A88900F4004040B1322000EBC800B0FB54
:10169000F1F000F00700044308E0322000EB0810EE
:1016A0006421B0FBF1F000F00F0004432C81BDE891
:1016B000FF874FF41651016000218180C1800181B4
:1016C0000C21418100218181704710B50246002024
:1016D000108A20F470600B884C8823438C88234345
:1016E000CC8823431843108210BD00210180418023
:1016F0008180C180704721B1828942F40052828189
:1017000004E082894DF6FF731A4082817047028B94
:1017100002F47F420283028B0A430283704721B1A5
:10172000828942F40042828103E08289C2F30E0280
:101730008281704721B1828A42F40062828204E091
:10174000828A4FF2FF731A4082827047C1F3080207
:101750008280704701468888C0F308007047028A7B
:101760004FF6F0731A400282028A0A4302827047DF
:1017700021B1828942F00202828104E082894FF61F
:10178000FD731A408281704782894FF2FF731A40BD
:10179000828182890A4382817047028A4FF6DF7311
:1017A0001A400282028A0A430282704721B1028AE9
:1017B00042F48042028204E0028A4BF6FF731A4030
:1017C00002827047818941F001018181704721B116
:1017D000828A42F00802828204E0828A4FF6F7731E
:1017E0001A4082827047028BD2B20283028B42EA95
:1017F00001220283704721B1828A42F02002828254
:1018000004E0828A4FF6DF731A408282704721B16A
:10181000828A42F01002828204E0828A4FF6EF73DD
:101820001A4082827047828A4FF6FB731A40828286
:10183000828A0A438282704721B1828A42F0020280
:10184000828204E0828A4FF6FD731A4082827047DA
:101850001AB1838A0B43838202E0838A8B4383829B
:101860007047F0B50346002400260025002040F60E
:101870006A17B94200D100BF1846C1F3421401F003
:101880001F06012707FA06F5012C01D10C3004E0F0
:10189000022C01D1103000E014301AB107682F4338
:1018A000076002E00768AF430760F0BD0246002012
:1018B000B1F5007F00D100BF13880B400BB10120B0
:1018C00000E00020704701F40072B2F5007F00D103
:1018D00000BFCA430280704770B50246002400234F
:1018E0000025002040F66A16B14200D100BFC1F3C6
:1018F000421501F01F03012606FA03F3012D13D14F
:101900009689334017E00000001001400044004079
:1019100000480040004C00400050004000140140CE
:1019200000780040007C0040022D02D1168A33402E
:1019300001E0968A33400C12012606FA04F4168858
:10194000344013B10CB1012000E0002070BD10B58F
:101950000022002340F66A14A14200D100BF0A12FF
:1019600001249440A3B2DC43048010BD10B50446AA
:101970006FF00400FEF708FFE11704EB5171C1F3AB
:10198000C701394A11701046007800EB4001C1EBE5
:10199000C0104FF6FF7101EAC0003449088010BD45
:1019A0000146314A12784A434FF0E0235A6100223F
:1019B0009A611A46126942F001021A6100BF4FF0A3
:1019C000E022106900F001021AB100F48032002A0E
:1019D000F5D04FF0E022126922F001024FF0E0232F
:1019E0001A6100229A6170470146204A12884A43D0
:1019F0004FF0E0235A6100229A611A46126942F0C0
:101A000001021A6100BF4FF0E022106900F00102EC
:101A10001AB100F48032002AF5D04FF0E0221269AA
:101A200022F001024FF0E0231A6100229A61704710
:101A300070B504464FF4077094FBF0F0C6B24FF453
:101A4000077094FBF0F100FB114085B205E04FF404
:101A50000770FFF7C9FF701EC6B2002EF7D115B18F
:101A60002846FFF7C1FF70BD380000203A00002073
:101A700000BF704700BF054A128802F04002002AEA
:101A8000F9D0C2B2014B9A807047000000100140AB
:101A90001CB501211120FFF7EBFB1820009000205E
:101AA0008DF8040003208DF8050001208DF8070053
:101AB00069461C48FFF73EF90120009002208DF88E
:101AC000070069461848FFF735F91CBD10B510210D
:101AD0001448FFF791F950B108211248FFF78CF92B
:101AE00028B101211048FFF787F9012818D10520F6
:101AF000FFF79EFF10210B48FFF77EF908B9012080
:101B000010BD08210748FFF777F908B90220F7E769
:101B100001210548FFF770F9012801D10320EFE703
:101B20000020EDE700100240000002401CB501213A
:101B30000846FFF79DFB01208DF8040000208DF87A
:101B40000600C020009001208DF8070003208DF8CA
:101B5000050069460348FFF7EDF8C0210148FFF78B
:101B600065F91CBD0000024010B56248006820F411
:101B70004020604908600846006840F48020086002
:101B800000205D4908601420FFF752FF01205B49E7
:101B9000C1F8A4021E20FFF703FF10BD10B50024FA
:101BA0005448006820F44020524908600846006804
:101BB000086004E0601CC4B20120FFF7F1FE4E484B
:101BC0008038006808B1642CF4DB642C01DB012050
:101BD00010BD002404E0601CC4B20120FFF7E0FE49
:101BE00045488038006808B9642CF4DB642C01DBBC
:101BF0000120EDE70020EBE710B5002404E0601CB5
:101C0000C4B20120FFF7CCFE3B488038006808B121
:101C1000642CF4DB002404E0601CC4B20120FFF754
:101C2000BFFE35488038006808B9642CF4DB2820F2
:101C3000FFF7B6FE30488038006808B1012010BDBB
:101C40000020FCE770B50024002506E06006040EC5
:101C5000FFF7D2FF0443681CC5B2082DF6DB20460F
:101C600070BD7CB505460E46FFF77EFFFFF796FF79
:101C7000F8B9002405E0FFF7E5FF0DF80400601C4B
:101C8000C4B2052CF7DB9DF800009DF80110084454
:101C90009DF8021008449DF8031008449DF80410B4
:101CA000884208D19DF8000030709DF8020028702D
:101CB00001E001207CBD0020FCE71CB501210220D1
:101CC000FFF7D6FA4FF40070009001208DF8040061
:101CD00000208DF8060002208DF8050001208DF807
:101CE000070069460348FFF725F8FFF73DFFFFF7B8
:101CF00055FF1CBD00040240A482404200804042C7
:101D000000B587B001211020FFF70CFB0121084628
:101D1000FFF7AEFA072209216448FFF796F8072279
:101D20000A216248FFF791F802208DF81800002080
:101D30008DF81A004FF4C060059001208DF81B004B
:101D40008DF8190005A95948FEF7F4FF4FF4165015
:101D500001900020ADF810000C20ADF80E0000201E
:101D6000ADF80C00ADF80A00ADF8080001A9504824
:101D7000FFF739FC01214E48FFF7BDFC012240F27C
:101D800025514B48FFF76DFD25208DF800000120FF
:101D90008DF8030002208DF801008DF802006846DE
:101DA000FEF7A5FC07B000BD38B504460A2094FB39
:101DB000F0F0C0B28DF800000A2094FBF0F100FBB7
:101DC0001140C0B28DF8010000BF40213848FFF734
:101DD0006DFD0028F9D09DF8000000F13001344875
:101DE000FFF7B4FC00BF40213148FFF75FFD00283A
:101DF000F9D09DF8010000F130012D48FFF7A6FC55
:101E000038BD70B505460E46002400BF0CE000BF8B
:101E100040212748FFF74AFD0028F9D0295D2448D2
:101E2000FFF794FC601CC4B2B442F0DB70BD10B587
:101E300040F225511E48FFF74FFD012834D11C48C0
:101E4000FFF788FCC4B21B48008800F4004058BB70
:101E50001848008800F4804060B10A2C06D115486B
:101E6000008840F40040134908801DE0002011491B
:101E7000088019E00D2C06D10E48008840F48040FF
:101E80000C49088010E00B480088C0F30D000A4997
:101E90000C5408480088401C064908800846008801
:101EA000C82801DB0020088010BD000000000240AF
:101EB000001001403C000020580000201CB501210A
:101EC0000846FFF7D5F901208DF8040000208DF8B1
:101ED00006003C20009002208DF8070003208DF8BA
:101EE000050069467E48FEF725FFC0217C48FEF7C5
:101EF0009FFF1CBD70B50446002500BF6FE00120A8
:101F00007849086000207849C1F88C027549083189
:101F100008607549C1F8940272481030006808B929
:101F2000012000E000206F491031086040F63400C5
:101F3000FFF736FD00206C49C1F88802012069498D
:101F4000091D08600020091D08606749C1F8940256
:101F50000846D0F8980208B9012000E00020614945
:101F60001031086040F63400FFF71AFD00205E498A
:101F7000C1F888025B49091D08600120091D08603D
:101F800000205949C1F894020846D0F8980208B9CF
:101F9000012000E0002053491031086040F6340071
:101FA000FFF7FEFC00205049C1F888024D49091D89
:101FB0000860091D086001204B49C1F894020846D9
:101FC000D0F8980208B9012000E0002045491031FE
:101FD000086040F63400FFF7E3FC681C85B204EBB0
:101FE0008400B5EB400F8ADB70BD70B50446002558
:101FF00000BF6FE000203B4908603B49C1F88C02FC
:1020000038490831086001203749C1F89402354841
:102010001030006808B9012000E00020314910317B
:10202000086040F63400FFF7BBFC00202E49C1F8E1
:1020300088022C49091D08600120091D0860002044
:102040002949C1F894020846D0F8980208B901203D
:1020500000E0002023491031086040F63400FFF70B
:102060009FFC00202049C1F8880201201D49091D5C
:1020700008600020091D08601B49C1F89402084649
:10208000D0F8980208B9012000E00020154910316D
:10209000086040F63400FFF783FC01201249C1F8C4
:1020A000880200200F49091D0860091D08600E49BB
:1020B000C1F894020846D0F8980208B9012000E05F
:1020C000002008491031086040F63400FFF768FC32
:1020D000681C85B204EB8400B5EB400F8ADB70BD51
:1020E00000000240880240420000404200B58DB02E
:1020F00001210220FFF7BCF801210802FFF712F9C5
:1021000003208DF818000120059000208DF81B0099
:1021100005A92848FEF70EFE0020039001904FF419
:10212000803002900020049001A8FEF785FB00207B
:1021300007908DF820008DF8210009900B90012068
:102140008DF8300007A91C48FEF747FB01211A480B
:10215000FEF789FB0DB000BD10B504460723012230
:1021600021461548FEF7BFFB1348FEF718FC00BFD9
:1021700002211148FEF734FD0028F9D00E48FEF781
:102180004AFC10BD2DE9F04107460C46002500260B
:1021900008E03846FFF7E0FF05440520FFF748FC5C
:1021A000701CC6B2A642F4DBB5FBF4F080B2BDE809
:1021B000F081000000040240002001407047000050
:1021C0000FB41CB5074B06AA7B44694600900598DE
:1021D00000F09FFA0020694600F0AEFA1CBC5DF8E2
:1021E00014FB00006D0500002DE9F0410E46044689
:1021F000002020622046E168884730B3252805D0BA
:10220000D4E901219047206A401CF2E7E1682046AA
:1022100000278847050018D0A5F14100192802D8E9
:1022200020354FF400673246294620462760FDF7E7
:10223000E5FF40B1012804D0F61D26F00706083658
:10224000D8E7361DD6E72846DAE7206ABDE8F081F0
:1022500040EA010370B59B072ED14FF00136042AE6
:102260002AD308C810C99D1B9D43121F15EAC61525
:1022700017D0D8B2E1B2401A50EA056110D198B235
:10228000A1B2401A50EA05410AD123F07F4024F060
:102290007F41401A50EA052102D1180EA0EB1460CC
:1022A00070BDA342DBD018BA21BA884201D90120FF
:1022B00070BD4FF0FF3070BD0AB9002070BD10F83E
:1022C000013B11F8014B63B1A3420AD1521E08D061
:1022D00010F8013B11F8014B1BB1A34201D1521E72
:1022E000EDD1181B70BD704770477047704770473D
:1022F0002DE9FF4F0C461E464FF0FF378BB0D2E959
:102300000001DDF860800A908A46C1F30A5505B9DC
:102310003D46002108464FF00000BAF1000F00F4DE
:10232000400005DA00EB80004FF4400101EA500064
:102330004FEA9059B9F1010F00DDB9460A9850EA09
:102340004A000ED044F61050A5F2FF3545432F1435
:10235000B8F1000F1ED07542291E1EDDC9F1000222
:102360001CE0B8F1010F4FF0000001D0302103E074
:10237000F24305E02154401CB042FBDB3046002212
:10238000002121540B99C1F80880C1E900200FB049
:10239000BDE8F08FBD1B6D1CDEE74A4600DA6942DE
:1023A00006A800F059FA06AB93E8070003AB83E8F0
:1023B000070050460A9900F02FFB8DE80700A0F5B2
:1023C00000501F3800900398002D09DD42F21F01D4
:1023D0004A46084403A90390684600F08EFD08E0D1
:1023E000A0F500504A461F3803A90390684600F044
:1023F00098FD8DE807000004000C03D04FF0FF307B
:10240000410800E01046B8F1000F03D0002200920E
:1024100015461EE0751E05D400F098F9303262555D
:102420006D1EF9D5B3460122084302D000227F1C5D
:1024300004E02078302801D100227F1E002A09976D
:1024400086D01DE0112D07DA00F080F93032625598
:102450006D1C50EA0102F5D1084302D00098C8B1C2
:102460000EE00021681E05E0235C625C6354225488
:10247000401E491C8142F7DBAB46A81B401E099059
:10248000002004F80B000B98099AC0F80880C0E9F6
:10249000002B7CE711264FF0000859E72DE9F04F9B
:1024A00088460446D21D22F0070191B0D1E900010F
:1024B000CDE90A0100F06BFE02460B98C00F01D077
:1024C0002D2007E02068810701D52B2002E0202184
:1024D00001EAC000032A099001D0072A05DB034660
:1024E0004146204600F078F90BE12078800601D5BE
:1024F000E06900E00620B8F1650F814606D0B8F12A
:10250000660F18D0B8F1670F70D131E00020B9F133
:10251000110F009001DB112301E009F101030AAA68
:1025200001A90CA8FFF7E4FEDDE90C70002609F113
:102530000105834647E001204B4600904FF00047DD
:102540000AAA01A90CA8FFF7D3FEDDE90DB00C998A
:102550005D46002610B909F101000D18B9EB050020
:1025600003D4C0F1FF3609F10105A5EB09002BE00A
:10257000B9F1010F01DA4FF001090020B9F1110F93
:102580000090484601DD112300E003460AAA01A994
:102590000CA8FFF7ADFEDDE90C704D460026834622
:1025A000207800070AD4AB4500DA5D4601A8012D6A
:1025B00004DD411911F8011C302907D04F4502DA1A
:1025C00017F1040F04DA012082460FE06D1EEEE7DA
:1025D000002F02DCED1B3E4403E0781CA84200DD26
:1025E0007D1CB81B00F1010A4FF00047207800075E
:1025F00003D4AA4501DB4FF0FF3A0021B7F1004FA9
:102600000DF143088DF8431024D002202B23002F16
:1026100001DA7F422D230A21021EA0F1010000DC15
:102620005FB197FBF1FC97FBF1F201FB1C7C1746B5
:102630000CF1300C08F801CDEEE7A8F101000370B1
:102640002188090501D5452100E06521A0F1010897
:1026500000F8011C09980FA9A1EB0807FF1D00B1A4
:102660000120411901EBEA70A1693844081A401EA3
:10267000A0612078C00602D42046AFF300800998FC
:1026800028B1D4E901219047206A401C20622078BB
:10269000C00622D52046AFF300801EE0002E04DBEA
:1026A000B34502DD01A8805D00E03020D4E90121BE
:1026B0009047206A401C2062761CAAF101005FEA64
:1026C000000A0AD100F03EF8C0680168405CD4E915
:1026D00001219047206A401C2062281EA5F10105B7
:1026E000DCDC07E0D4E9012118F8010B9047206AEF
:1026F000401C2062381EA7F10107F3DC2046AFF32F
:102700000080032011B043E601694A1C0261087889
:10271000704700B58FB0CDE9013100210591054921
:102720007944CDE9031011466846FFF75DFD0FB00F
:1027300000BD0000E5FFFFFF0A6802F8010B0A6018
:1027400070470000004870474001002030B5B0F1EC
:102750000A024FEA900E71F100034EEA817EB0EB5F
:102760000E0061EB91014FEA101E4EEA017E10EB64
:102770000E0041EB11114FEA102E4EEA016E10EBE4
:102780000E0041EB11214FEA104E4EEA014E10EBC4
:102790000E0041EB1141401841F100014FEAD00019
:1027A00040EA41704FEAD10110EB80054FEA810405
:1027B00044EA907444EB01046D1944EB0404521B89
:1027C000A3414FF0000348BF0A3200D530BD401C82
:1027D00041F1000130BD00002DE9F0411F460446E3
:1027E00003260168072A01F4006004DB08B116A57E
:1027F00005E016A503E008B115A500E015A521F038
:1028000010002060A069C01EA0610FB1401EA06131
:102810002046AFF300804FB1D4E9012138469047FC
:10282000206A401C2062C01C206206E0206AFAE791
:10283000D4E9012115F8010B9047761EF8D2204605
:10284000AFF30080BDE8F0814E414E006E616E0036
:10285000494E4600696E66002DE9F04781461646EE
:102860008AB0334878440DC88DE80D00304878446C
:10287000801C03AC0DC884E80D0041F69B30084471
:10288000372190FBF1F290FBF1F5A5F1800501FBFA
:1028900012041B3C02D56442012000E00020DFF856
:1028A00090A080460027FA44AAF1BE0A0DE0E00796
:1028B00009D03246684607EB47010AEB810100F078
:1028C00030FB8DE8070064107F1C002CEFD1184FFF
:1028D0007F44AC3F18E0E80714D007EB04100DF17B
:1028E000180A90E80E008AE80E00C068F04201D194
:1028F00098190890324606A903A800F012FB03AB12
:1029000083E807006D10641C002DE4D1324669464F
:10291000B8F1000F03A802D000F0EFFA01E000F0D8
:1029200000FBC9E90001C9F808200AB0BDE8F0873A
:10293000FC0A000000487047200100207546FFF7A0
:10294000F9FFAE4605006946534620F0070085466C
:1029500018B020B5FDF7B4FEBDE820404FF00006EA
:102960004FF000074FF000084FF0000B21F0070177
:10297000AC46ACE8C009ACE8C009ACE8C009ACE8BA
:10298000C0098D46704710B50446AFF3008020465D
:10299000BDE81040FDF74EBC4FF0013C50F8042B51
:1029A00051F8043B9A4221D1A2EB0C03934313EA62
:1029B000CC1317D150F8042B51F8043B9A4215D18F
:1029C000A2EB0C03934313EACC130BD150F8042B66
:1029D00051F8043B9A4209D1A2EB0C03934313EA4A
:1029E000CC13DBD04FF00000704700BFD01A01BA03
:1029F000B1FA81F101F0180122FA01F0CB40C1F1E6
:102A00002001DBB2C0B2C01A2CFA01F3D11A9143F3
:102A100011EAC311E6D170475FEA400C08BF91F09C
:102A2000000F4FEA8C234FEAC12243EA51514FEA8B
:102A30001C5018BF00F5F0404FEA300018BF41F0BD
:102A400000415FEA6C5C00F02980BCF1FF3F08BFE9
:102A500040F080407047130C06BF12044FF0100C7A
:102A60004FF0000C130E04BF12020CF1080C130FF0
:102A700004BF12010CF1040C930F04BF92000CF17F
:102A8000020CD30F04BF52000CF1010C11464FF0A1
:102A90000002A0F11F00A0EB0C00704711F0004FE6
:102AA00008BF704731F000413FF4D5AF0B0C06BFB3
:102AB00009044FF0100C4FF0000C0B0E04BF09027C
:102AC0000CF1080C0B0F04BF09010CF1040C8B0F67
:102AD00004BF89000CF1020CCB0F04BF49000CF1BC
:102AE000010CCCF12003A0EB0C0022FA03F302FA54
:102AF0000CF241EA030100F10100704720F07F4C25
:102B000080EA030023F07F47ACEB070303F57C5317
:102B100000F0004003F1FF032DE980494FEA154B17
:102B200009B44FEA144325EA0B4E24EA03480FF296
:102B3000042606EB132749083E785FEA320203FBBE
:102B40000667C7F5000707FB06F64FEA54374FEA5A
:102B5000D64606F1020607FB066CCCF1005C4FEA94
:102B60001C472CEA074C07FB06F40CFB06F504EBAC
:102B700015464FEA961634BF00204FF000404FEA4A
:102B8000D13706FB07FC4FEA1C4C0CFB0BF7D21BA2
:102B900003FB0CF761EB07010CFB0EF7B0EB0740F2
:102BA00072EB17420CFB08F734BFA2EB0742B2EB03
:102BB000074261EB17414FEA0C444FEA910706FBCD
:102BC00007FC4FEA1C4C0CFB0BF7B0EBC74072EB59
:102BD000573203FB0CF734BFA2EBC742B2EBC7423C
:102BE00061EB57310CFB0EF7B0EBC70072EB57727D
:102BF0000CFB08F734BFA2EBC702B2EBC70261EBD4
:102C00005771039F4FEA816141EA921104EBCC04B2
:102C10004FEAD1374FEA826206FB07FC42EA901284
:102C20004FEA80604FEA1C4C0CFB0BF7D21B03FBF6
:102C30000CF761EB07010CFB0EF7B0EB074072EBF2
:102C400017420CFB08F734BFA2EB0742B2EB074276
:102C500061EB17414FEA8C554FEA910704EB9C2436
:102C600006FB07FC4FEA1C4C0CFB0BF7B0EBC74014
:102C700072EB573203FB0CF734BFA2EBC742B2EB47
:102C8000C74261EB57310CFB0EF7B0EBC70072EB9C
:102C900057720CFB08F734BFA2EBC702B2EBC702B6
:102CA00061EB577115EB4C254FEA816141EA9211B6
:102CB0004FEA82624FEAD13742EA901206FB07FCE4
:102CC00044F100044FEA80604FEA1C4C0CFB0BF708
:102CD000D21B03FB0CF761EB07010CFB0EF7B0EB0B
:102CE000074072EB17420CFB08F734BFA2EB074218
:102CF000B2EB074261EB174115EB1C154FEA81312E
:102D000041EA92414FEA823242EA90424FEA8030F1
:102D10004FEA0C7644F1000448EA03434EEA0B48BC
:102D20004FF0000EB2EB080C71EB030724BF6246B4
:102D300039464EEB0E0E4FF0000B00185241494140
:102D40004BEB0B0BB2EB080C71EB03077BF1000BA9
:102D500024BF624639464EEB0E0E4FF0000B0018B2
:102D6000524149414BEB0B0BB2EB080C71EB0307E3
:102D70007BF1000B24BF624639464EEB0E0E51EA42
:102D8000020718BF46F0010616EB0E7655F1000259
:102D900054F1000103D5BDE88901BDE80088BDE814
:102DA0008901BDE80048B619524141EB0101A3F188
:102DB0000103704780807F7E7D7C7B7A797877768F
:102DC00076757473727171706F6E6E6D6C6C6B6A08
:102DD0006A696868676666656464636362616160A6
:102DE000605F5F5E5E5D5D5C5C5B5B5A5A59595823
:102DF000585757565655555554545353525252518D
:102E0000515050504F4F4F4E4E4D4D4D4C4C4C4BE2
:102E10004B4B4A4A4A494949484848474747474629
:102E20004646454545444444444343434342424265
:102E300042414141002B26D4770021D01CB54FEAF6
:102E4000370703B44FF010004FF010014FF00000AF
:102E50000FBCBDE810400BF1010BBBF1010F08BF27
:102E60005FEA170722BF12F1010211F101014FF0D1
:102E7000004143F1000300F0004043EA00007047C6
:102E8000F9D35708DAE746EA064613F1400F4FEA4E
:102E900016461FDD13F1200FDFBF16430A4600213F
:102EA00020335B42C8D0C3F1200746EA064602FA47
:102EB00007F74FEA164646EA0706C3F1200722FA4B
:102EC00003F201FA07F721FA03F14FF0000342EA97
:102ED0000702B1E746EA020646EA06464FEA164608
:102EE00046EA0106BCBF46EA0646360C4FF0000330
:102EF0004FF000024FF000019EE72DE9C0489346D5
:102F000030B491E8380007C831EA400C48BF34EAD1
:102F1000430C03D5FFF7F2FDFFF78CFFF0BCBDE8D3
:102F200000882DE9C048934630B491E8380007C8BE
:102F300010F0804F08BF13F0804F03D100F005F868
:102F4000FFF778FFF0BCBDE8008820F07F4780EAFB
:102F5000030023F07F4C07EB0C03A3F57C5300F038
:102F60000040A3F1FE0392F0000F00F0B38095F053
:102F7000000F00F077802DE901494FEA11404FEA38
:102F8000144621EA004800FB06FC24EA064708FB39
:102F900006F607FB08F800FB07F718EB06484CEBB2
:102FA000164C4FEA124B18EB07484FEA15464CEB0C
:102FB000174022EA0B4E0BFB06FC25EA06470EFBE8
:102FC00006F607FB0EFE0BFB07F71EEB064E4CEB5F
:102FD000164C4FF000061EEB074E4CEB174B18EB50
:102FE0000B0840F1000018EB0E0B58EB000840F105
:102FF00000008F1A4FF000013CBFC943661B14BF8D
:10300000B5EB040C00213CBFC943F61B4FEA174443
:103010004EEA8E0E27EA04454FEA1C4704FB07627E
:103020002CEA074C05FB07F70CFB05F604FB0CFC30
:1030300016EB074642EB174216EB0C4642EB1C42DE
:103040001BEB060658EB0202414146EA9E0601D5FB
:10305000BDE80189B619524141EB0101A3F1010319
:10306000BDE801894FEA14454FEA114724EA0546B5
:1030700021EA074C05FB07F406FB07F70CFB06F1FA
:1030800005FB0CFC11EB074144EB17444FEA1247D8
:1030900011EB0C4144EB1C4422EA074C05FB07F200
:1030A00006FB07F70CFB06F605FB0CFC16EB0746C8
:1030B00042EB174216EB0C4642EB1C456A1854F1E2
:1030C000000148BF7047B619524141EB0101A3F11D
:1030D0000103704795F0000F37D04FEA11424FEAD5
:1030E000144721EA024624EA074C02FB07F106FBDB
:1030F00007F70CFB06F402FB0CFC14EB074441EB56
:1031000017414FEA154714EB0C4441EB1C4125EAEB
:10311000074C02FB07F506FB07F70CFB06F602FB64
:103120000CFC16EB074645EB174516EB0C4645EB3A
:103130001C42121951F1000148BF7047B6195241A3
:1031400041EB0101A3F1010370474FEA14454FEA37
:10315000114724EA054621EA074C05FB07F106FB67
:1031600007F70CFB06F24FF0000605FB0CFC12EB18
:10317000074241EB174112EB0C4251EB1C4148BF97
:103180007047921841EB0101A3F10103704703B4AA
:1031900001984100009850EAC12018BF04204A0D50
:1031A00018BF40F0010040F2FF72B2EB515F08BF60
:1031B00040F00200012808BF052002B0704700005F
:1031C00010B500290AD00878002807D005487844AF
:1031D000FFF7E2FB002801D0002010BD0248784430
:1031E00010BD0000CE010000C60100000808A0F5D7
:1031F00000114FEA3101704743004FEAD30C4FEA08
:103200003C0C43401FBF40070CF1605113F0FE4FD0
:1032100070471CF0006F03D100200CF00041704794
:103220000CF0004343EA507010B540EACC0000F0C7
:103230000EF800BF000000924FEA0001FFF7D6BF72
:103240004FF000414FF00000A1F5002170470EF152
:10325000020E2EF0030E5EF8044B244204D44FEA13
:103260004102B2F17F4F11D84FEA4003B3F17F4FD3
:103270000CD80ED14FEAD07CB2F17F4F0CEB4C0C46
:103280000CF1020C08BF4CEBD17C04E04FF0080CB1
:1032900001E04FEAD17C0CEB4C0324FA03F404F078
:1032A0000704B4F1040C06D20EEB840CBDE8104008
:1032B0004CF0010C6047DFE80CF0070802024FF009
:1032C0000040A0F5800010BD0846420018BFD2F1B2
:1032D000807288BF00F0004010BD4FF04070E1EEFA
:1032E000100A7047FFF7DAB802400000000000A0A3
:1032F0000000000005400000000000C800000000C1
:103300000C4000000000409C00000000194000003C
:103310000020BCBE0000000034400000BFC91B8E6E
:1033200000000004B5400000504BCFD06607E2CF4C
:10333000010000006C4100003E8251AADFEEA7347C
:1033400001000000D9420000DCB5A0E23A301F972E
:10335000FFFFFFFFB4450000FD25A0C8E9A3C14F52
:10336000FFFFFFFFFF3F00000000008000000000A3
:10337000FF3F00000000008000000000B83300089C
:103380000000002044000000C4010008FC330008D5
:10339000440000203C070000E00100081C00000081
:1033A00043000000F8FFFFFF0C0000000E000000CB
:1033B0000F0000002E0000000901B40055000000BD
:1033C000000000000000000000000000007A030A76
:1033D00000000000000000000102030406070809C5
:1033E00000000000010203040102030406070809AB
:0C33F000000000000000000000000000D1
:040000050800018965
:00000001FF
