:020000040800F2
:100000009006002019050008ED020008EF02000824
:10001000F3020008F7020008FB02000800000000DD
:10002000000000000000000000000000FF020008C7
:100030000103000800000000030300080503000896
:1000400033050008330500083305000833050008B0
:1000500033050008330500083305000833050008A0
:100060003305000833050008330500083305000890
:100070003305000833050008330500083305000880
:100080003305000833050008330500083305000870
:100090003305000833050008330500083305000860
:1000A0003305000833050008330500083305000850
:1000B0003305000833050008330500083305000840
:1000C0003305000833050008330500083305000830
:1000D00033050008791700083305000833050008C8
:1000E0003305000833050008330500083305000810
:1000F0003305000833050008330500083305000800
:1001000033050008330500083305000833050008EF
:1001100033050008330500083305000833050008DF
:1001200033050008330500083305000833050008CF
:1001300033050008330500083305000833050008BF
:1001400033050008330500083305000833050008AF
:10015000330500083305000833050008330500089F
:10016000330500083305000833050008330500088F
:10017000330500083305000833050008330500087F
:10018000330500083305000800F002F800F03CF8E1
:100190000AA090E8000C82448344AAF10107DA45E2
:1001A00001D100F031F8AFF2090EBAE80F0013F0F8
:1001B000010F18BFFB1A43F0010318479016000007
:1001C000B0160000103A24BF78C878C1FAD8520798
:1001D00024BF30C830C144BF04680C6070470000C1
:1001E0000023002400250026103A28BF78C1FBD840
:1001F000520728BF30C148BF0B6070471FB501F0E0
:100200001FFB1FBD10B510BD01F0E7FA1146FFF747
:10021000F5FF00F009F801F005FB03B4FFF7F2FF6A
:1002200003BC01F02DF9000000244FF4A06000F0A1
:1002300093F9A82001F0A2F801F0EEF901F03AFAE2
:1002400001F02EF94AE001F051F90446002C45D0A6
:10025000012C06D0022C0DD0032C14D0042C3CD140
:100260001AE061211E4800F079FF61211D4800F06D
:1002700075FF32E062211A4800F070FF62211948D0
:1002800000F06CFF29E06321154800F067FF63214F
:10029000144800F063FF20E013480078401C124926
:1002A000087008460078032801D1012008700E4824
:1002B0000078012808D14121094800F04FFF412171
:1002C000084800F04BFF07E04221054800F046FFD8
:1002D0004221044800F042FF00BF00BFB3E7000026
:1002E000004800400010014000000020704700BF9F
:1002F000FEE700BFFEE700BFFEE700BFFEE7704776
:1003000070477047704700000CB5002001900090C6
:100310007648006840F480307449086000BF734834
:10032000006800F4003000900198401C0190009893
:1003300018B90198B0F5A04FF1D16C48006800F4ED
:10034000003010B10120009001E0002000900098E2
:10035000012846D165484030006840F0805063492C
:10036000403108606248006840F4404060490860DD
:100370005E48083000685D4908310860084600683A
:1003800040F4004008600846006840F4A05008604F
:100390005848091F0860081F006840F08070091F56
:1003A000086000BF5148006800F000700028F9D0D4
:1003B00040F20570504908604C480830006820F051
:1003C00003004A49083108600846006840F002000E
:1003D000086000BF45480830006800F00C0008289D
:1003E000F8D10CBD10B54548006840F47000434991
:1003F00008603E48006840F001003C490860002069
:100400003A4908310860394800683D490840374991
:1004100008603C48091D0860081F006820F480201F
:10042000091F0860002031490C310860FFF76CFF9C
:100430004FF0006031498039086010BD70B5002070
:100440000022022300240221284D08352D6805F0E2
:100450000C0020B1042806D0082834D107E02A4D2A
:100460002A4E356033E02A4D284E35602FE01F4D6F
:100470002D1D2D68C5F380541C4D2D1D2D6805F0D4
:100480003F0154B1224DB5FBF1F5184E361D3668CB
:10049000C6F3881605FB06F209E01B4DB5FBF1F526
:1004A000124E361D3668C6F3881605FB06F20F4D50
:1004B0002D1D2D68C5F301456D1C6B00B2FBF3F5D6
:1004C000124E356003E0104D104E356000BF00BF86
:1004D000064D08352D68C5F303150E4E705D0B4DA6
:1004E0002D68C540094E356070BD000000380240DF
:1004F0000070004008544007003C024088ED00E0D6
:10050000FFFFF6FE103000240024F4000400002059
:1005100000127A0008000020094880470948004777
:10052000FEE7FEE7FEE7FEE7FEE7FEE7FEE7FEE7A3
:10053000FEE7FEE704480549054A064B7047000000
:10054000E5030008890100089000002090060020C3
:10055000900200209002002032490143324A11608B
:10056000704770B5002100230F22C4781CB32E4CB5
:10057000246804F4E064C4F5E064C4F30721C1F125
:100580000404E3B20A4144789C40E1B28478144008
:1005900021430C07210E254C05786155047804F0A1
:1005A0001F050124AC4005786D11AD0005F1E02573
:1005B000C5F8004109E0047804F01F050124AC40AF
:1005C0001B4D0678761145F8264070BD194A0A4041
:1005D0000243154B1B1F1A60704739B1124A121D96
:1005E00012680243104B1B1D1A6006E00E4A121DD2
:1005F000126882430C4B1B1D1A607047042808D1F7
:100600004FF0E021096941F004014FF0E02211614F
:1006100007E04FF0E021096921F004014FF0E022EA
:10062000116170470000FA050CED00E000E400E005
:1006300080E100E080FFFF1F10B504469848844227
:1006400008D10121084600F086FB0021012000F0BE
:1006500082FB76E09348844208D10121022000F019
:100660007AFB0021022000F076FB6AE08E4884428B
:1006700008D10121042000F06EFB0021042000F0CD
:100680006AFB5EE08948844208D10121082000F01D
:1006900062FB0021082000F05EFB52E084488442A7
:1006A00008D10121102000F056FB0021102000F09D
:1006B00052FB46E07F48844208D10121202000F00F
:1006C0004AFB0021202000F046FB3AE07A488442B1
:1006D00008D10121402000F03EFB0021402000F025
:1006E0003AFB2EE07548844208D10121802000F0B9
:1006F00032FB0021802000F02EFB22E07048844273
:1007000008D10121801500F026FB0021A01500F082
:1007100022FB16E06B48844208D10121401500F00D
:100720001AFB0021601500F016FB0AE066488442BF
:1007300007D10121001500F00EFB0021201500F06B
:100740000AFB10BDF0B50A4600210023002400BFBB
:100750003DE0012505FA01F3156805EA03049C4212
:1007600034D105684F000326BE40B54305601579B6
:100770004E00B5400668354305601579012D02D05D
:100780001579022D16D185684F000326BE40B5436A
:10079000856055794E00B54086683543856045686B
:1007A00001268E40B5434560456896798E40B6B2C5
:1007B00035434560C5684F000326BE40B543C5605C
:1007C000D5794E00B540C6683543C560491C10292F
:1007D000BFD3F0BD4FF6FF7101600021017141717F
:1007E0008171C171704708B54FF480320092009A50
:1007F0000A430092009AC261C161009AC261C26953
:100800000092C269009208BD0246002013690B40A5
:100810000BB1012000E0002070470146086980B25A
:1008200070470246002053690B400BB1012000E0E5
:10083000002070470146486980B2704701837047C5
:10084000418370470AB1018300E0418370474161F1
:10085000704742694A4042617047F0B50023002466
:100860004D07ED0E02FA05F3CE1000F1200555F804
:1008700026504E07F70E0F26BE40B543CF1000F1AD
:10088000200646F82750CE1000F1200555F82650D6
:1008900045EA0304CE1000F1200545F82640F0BDDE
:1008A000000002400004024000080240000C024028
:1008B000001002400014024000180240001C0240D8
:1008C000002002400024024000280240F94800684D
:1008D00040F00100F74908600020F649083108603F
:1008E000F4480068F4490840F2490860F348091DDB
:1008F0000860F348EF4984310860F0481038091D5A
:100900000860EC48006820F48020EA490860002074
:10091000E8490C310860E7498C31086070470021D4
:10092000E44A921C117011460870704710B50146D8
:100930000022002300204A11012A02D1DD4C236845
:1009400008E0022A03D1DB4C7034236802E0D94C62
:100950007434236801F01F02012494401C400CB140
:10096000012000E0002010BD38B5002000900024D8
:10097000002500BF3120FFF7D9FF05460098401C35
:1009800000900098B0F5A04F01D0002DF2D031209A
:10099000FFF7CCFF08B1012400E00024204638BD59
:1009A00001460020C34A106820F0F80040EAC10068
:1009B00010607047C349086070470021BD4A70321B
:1009C00011701170012802D004280AD104E001211D
:1009D000B84A7032117005E00521B64A70321170C4
:1009E00000E000BF00BF7047B7490860704770B5AE
:1009F000049C41EA82150126C6EB530645EA0645EA
:100A0000054345EA0465AB4E361D356070BDAD4902
:100A100008667047820142EA0172A64B84331A606D
:100A20007047A8498866704710B5830143EA01639F
:100A300043EA02739F4C8834236010BDA1490867C4
:100A40007047A049C864704702460020994B08339C
:100A5000186820F0EC6042EA01031843954B083314
:100A60001860704702460020924B0833186820F047
:100A7000784042EA010318438E4B083318607047F0
:100A8000014600208B4A0832106820F0030008431A
:100A90001060704787480830006800F00C0070470D
:100AA00001460020834A0832106820F0F000084315
:100AB00010607047014600207E4A0832106820F41A
:100AC000E05008431060704701460020794A083220
:100AD000106820F4604040EAC10010607047F0B533
:100AE000002100220024022500260223714F08372E
:100AF0003F6807F00C0121B1042905D0082937D13E
:100B000005E0724F076036E0714F076033E0694FD0
:100B10003F1D3F68C7F38056664F3F1D3F6807F093
:100B20003F036EB16A4FB7FBF3F7DFF888C10CF1F2
:100B3000040CDCF800C0CCF3881C07FB0CF40CE0C0
:100B4000624FB7FBF3F7DFF86CC10CF1040CDCF873
:100B500000C0CCF3881C07FB0CF4564F3F1D3F68C8
:100B6000C7F301477F1C7D00B4FBF5F7076002E087
:100B7000564F076000BF00BF4E4F08373F6807F071
:100B8000F0010909534F7A5C0768D7404760494F25
:100B900008373F6807F4E051890A4E4F7A5C47688E
:100BA000D7408760434F08373F6807F46041490BDF
:100BB000484F7A5C4768D740C760F0BD002100F419
:100BC0004072B2F5407F0AD13A4A0832116821F4E6
:100BD000F811414A02401143364A08321160354A41
:100BE00070321268C0F30B031A43324B70331A6031
:100BF00070473549443908607047334940390860C7
:100C0000704736490860704701460020294A8C32F7
:100C1000106820F01F004A1E1043264A8C321060D4
:100C2000704701460020234A8C32106820F4F850A7
:100C30004A1E40EA02201F4A8C321060704701466B
:100C400000201C4A8C32106820F4401008431060C9
:100C5000704701460020174A8C32106820F440008B
:100C600008431060704701460020124A8C32106819
:100C700020F44030084310607047194908607047FD
:100C800039B10C4A3032126802430A4B30331A60D1
:100C900006E0084A303212688243064B30331A604D
:100CA0007047F9B1034A343212680243014B3433BE
:100CB0001A601CE000380240FFFFF6EA1030002402
:100CC0000030002000004742800E47420024F4001C
:100CD00000127A0018000020FFFCFF0F5C01474261
:100CE000E01147428F4A126882438E4B1A60704768
:100CF00039B18C4A121D126802438A4B1B1D1A60BF
:100D000006E0884A121D12688243864B1B1D1A603A
:100D1000704739B1834A0C3212680243814B0C335D
:100D20001A6006E07F4A0C32126882437D4B0C3316
:100D30001A60704739B17B4A103212680243794B0E
:100D400010331A6006E0774A103212688243754BFE
:100D500010331A60704739B1724A243A126802435C
:100D6000704B243B1A6006E06E4A243A12688243B4
:100D70006C4B243B1A60704739B16A4A203A1268BA
:100D80000243684B203B1A6006E0664A203A12682C
:100D90008243644B203B1A60704739B1614A1C3A68
:100DA000126802435F4B1C3B1A6006E05D4A1C3A26
:100DB000126882435B4B1C3B1A60704739B1594A39
:100DC000143A12680243574B143B1A6006E0554A26
:100DD000143A12688243534B143B1A60704739B17E
:100DE000504A103A126802434E4B103B1A6006E01C
:100DF0004C4A103A126882434A4B103B1A607047C3
:100E000039B1484A1C3212680243464B1C331A60FF
:100E100006E0444A1C3212688243424B1C331A607B
:100E2000704739B13F4A2032126802433D4B2033AC
:100E30001A6006E03B4A203212688243394B203365
:100E40001A60704739B1374A243212680243354B71
:100E500024331A6006E0334A243212688243314B4D
:100E600024331A60704739B12E4A2C32126802437B
:100E70002C4B2C331A6006E02A4A2C32126882432B
:100E8000284B2C331A60704739B1264A3032126829
:100E90000243244B30331A6006E0224A3032126893
:100EA0008243204B30331A607047012808D11D4916
:100EB0003C31096841F008011A4A3C32116007E0F0
:100EC00018493C31096821F00801164A3C3211608A
:100ED000704739B1134A273A12780243114B273B26
:100EE0001A7006E00F4A273A127882430D4B273BCF
:100EF0001A7070470B484030006840F08070094914
:100F000040310860704701460020064A283A1268BE
:100F10000A400AB1012000E000207047014926394B
:100F2000087070473438024010B50446FA488442CD
:100F300008D101211020FFF752FF00211020FFF7F8
:100F40004EFF57E0F548844209D101214804FFF7DC
:100F500035FF00214FF40030FFF730FF4AE0F04842
:100F6000844209D101218804FFF728FF00214FF4B2
:100F70008020FFF723FF3DE0EA48844209D10121A8
:100F8000C804FFF71BFF00214FF40020FFF716FFF6
:100F900030E0E548844209D101210805FFF70EFF42
:100FA00000214FF48010FFF709FF23E0DF4884425F
:100FB00008D101212020FFF712FF00212020FFF798
:100FC0000EFF17E0DA48844209D101218807FFF7B4
:100FD000F5FE00214FF08040FFF7F0FE0AE0D54813
:100FE000844207D101214005FFF7E8FE002160059A
:100FF000FFF7E4FE10BD2DE9FF4705460E4600242D
:10100000A14600BFA046B08900B100BF2C8A24F4DD
:101010004054F08804432C82AC8941F20C60844334
:10102000B08831890843718908430443AC81AC8A94
:1010300024F44074B0890443AC826846FFF74FFD46
:10104000B548854202D0B948854202D1DDF80C90FE
:1010500001E0DDF80890A88900F4004040B109EBF8
:10106000C90000EB091031684900B0FBF1F707E057
:1010700009EBC90000EB091031688900B0FBF1F7FA
:101080006420B7FBF0F004012009642101FB107813
:10109000A88900F4004040B1322000EBC800B0FB4A
:1010A000F1F000F00700044308E0322000EB0810E4
:1010B0006421B0FBF1F000F00F0004432C81BDE887
:1010C000FF874FF41651016000218180C1800181AA
:1010D0000C21418100218181704710B5024600201A
:1010E000108A20F470600B884C8823438C8823433B
:1010F000CC8823431843108210BD00210180418019
:101100008180C180704721B1828942F4005282817E
:1011100004E082894DF6FF731A4082817047028B8A
:1011200002F47F420283028B0A430283704721B19B
:10113000828942F40042828103E08289C2F30E0276
:101140008281704721B1828A42F40062828204E087
:10115000828A4FF2FF731A4082827047C1F30802FD
:101160008280704701468888C0F308007047028A71
:101170004FF6F0731A400282028A0A4302827047D5
:1011800021B1828942F00202828104E082894FF615
:10119000FD731A408281704782894FF2FF731A40B3
:1011A000828182890A4382817047028A4FF6DF7307
:1011B0001A400282028A0A430282704721B1028ADF
:1011C00042F48042028204E0028A4BF6FF731A4026
:1011D00002827047818941F001018181704721B10C
:1011E000828A42F00802828204E0828A4FF6F77314
:1011F0001A4082827047028BD2B20283028B42EA8B
:1012000001220283704721B1828A42F02002828249
:1012100004E0828A4FF6DF731A408282704721B160
:10122000828A42F01002828204E0828A4FF6EF73D3
:101230001A4082827047828A4FF6FB731A4082827C
:10124000828A0A438282704721B1828A42F0020276
:10125000828204E0828A4FF6FD731A4082827047D0
:101260001AB1838A0B43838202E0838A8B43838291
:101270007047F0B50346002400260025002040F604
:101280006A17B94200D100BF1846C1F3421401F0F9
:101290001F06012707FA06F5012C01D10C3004E0E6
:1012A000022C01D1103000E014301AB107682F432E
:1012B000076002E00768AF430760F0BD0246002008
:1012C000B1F5007F00D100BF13880B400BB10120A6
:1012D00000E00020704701F40072B2F5007F00D1F9
:1012E00000BFCA430280704770B502460024002345
:1012F0000025002040F66A16B14200D100BFC1F3BC
:10130000421501F01F03012606FA03F3012D13D144
:101310009689334017E0000000100140004400406F
:1013200000480040004C00400050004000140140C4
:1013300000780040007C0040022D02D1168A334024
:1013400001E0968A33400C12012606FA04F416884E
:10135000344013B10CB1012000E0002070BD10B585
:101360000022002340F66A14A14200D100BF0A12F5
:1013700001249440A3B2DC43048010BD10B50446A0
:101380006FF00400FFF73AF9E11704EB5171C1F374
:10139000C701394A11701046007800EB4001C1EBDB
:1013A000C0104FF6FF7101EAC0003449088010BD3B
:1013B0000146314A12784A434FF0E0235A61002235
:1013C0009A611A46126942F001021A6100BF4FF099
:1013D000E022106900F001021AB100F48032002A04
:1013E000F5D04FF0E022126922F001024FF0E02325
:1013F0001A6100229A6170470146204A12884A43C6
:101400004FF0E0235A6100229A611A46126942F0B5
:1014100001021A6100BF4FF0E022106900F00102E2
:101420001AB100F48032002AF5D04FF0E0221269A0
:1014300022F001024FF0E0231A6100229A61704706
:1014400070B504464FF4077094FBF0F0C6B24FF449
:10145000077094FBF0F100FB114085B205E04FF4FA
:101460000770FFF7C9FF701EC6B2002EF7D115B185
:101470002846FFF7C1FF70BD280000202A00002089
:1014800000BF704700BF054A128802F04002002AE0
:10149000F9D0C2B2014B9A807047000000100140A1
:1014A00010B500F079F800F003F800F095F810BDE1
:1014B0001CB501211120FFF7E3FB1C200090002048
:1014C0008DF8040003208DF8050001208DF8070039
:1014D00069462F48FFF736F90120009002208DF869
:1014E000070069462B48FFF72DF91CBD10B50024F5
:1014F00010212748FFF788F978B108212448FFF721
:1015000083F950B104212248FFF77EF928B1012167
:101510002048FFF779F9012837D10520FFF790FF20
:1015200010211B48FFF770F908B9012414E00821C5
:101530001748FFF769F908B902240DE0042114489F
:10154000FFF762F908B9032406E001211148FFF70B
:101550005BF9012800D1042400BF10210C48FFF7DB
:1015600053F90028F9D008210948FFF74DF9002860
:10157000F3D004210648FFF747F90028EDD00121F8
:101580000448FFF741F90128E7D0204610BD0000CC
:1015900000100240000002401CB501212020FFF78E
:1015A0006FFB01208DF8040000208DF806004FF439
:1015B000C060009001208DF8070003208DF8050021
:1015C00069460448FFF7BEF84FF4C0610148FFF7D1
:1015D00035F91CBD001402401CB501212020FFF785
:1015E0004FFB4FF48070009001208DF80400002024
:1015F0008DF8060003208DF8050002208DF8070005
:1016000069460448FFF79EF84FF480710148FFF7E0
:1016100017F91CBD0014024000B587B001218804F1
:10162000FFF777FB01210220FFF72AFB07220B219E
:101630006348FFF712F907220A216148FFF70DF905
:1016400002208DF8180000208DF81A004FF4406039
:10165000059001208DF81B008DF8190005A9584848
:10166000FFF770F84FF4E13001900020ADF8100062
:101670000C20ADF80E000020ADF80C00ADF80A000B
:10168000ADF8080001A94F48FFF7B5FC01214D480E
:10169000FFF739FD07B000BD10B5044600BF40217B
:1016A0004848FFF70BFE0028F9D021464548FFF7D0
:1016B00055FD10BD00B587B001211020FFF73AFBA2
:1016C00001210846FFF7DCFA072209213E48FFF70F
:1016D000C4F807220A213C48FFF7BFF802208DF822
:1016E000180000208DF81A004FF4C060059001200A
:1016F0008DF81B008DF8190005A93348FFF722F873
:101700004FF4E13001900020ADF810000C20ADF84E
:101710000E000020ADF80C00ADF80A00ADF808008E
:1017200001A92A48FFF767FC01212848FFF7EBFCD5
:10173000012240F225512548FFF79BFD25208DF819
:10174000000001208DF8030002208DF801008DF8C3
:1017500002006846FEF705FF07B000BD10B504465D
:1017600000BF40211948FFF7A9FD0028F9D0214604
:101770001648FFF7F3FC10BD10B540F22551134891
:10178000FFF7B2FD012819D11048FFF7EBFCC4B2F6
:1017900021460C48FFF7E2FC00BF40210948FFF753
:1017A0008DFD0028F9D048210848FFF7D7FC00BF7D
:1017B00040210648FFF782FD0028F9D010BD000047
:1017C00000040240004800400000024000100140B8
:1017D00070477047704770477047754600F02CF8A7
:1017E000AE4605006946534620F00700854618B00E
:1017F00020B5FEF79FFEBDE820404FF000064FF0F9
:1018000000074FF000084FF0000B21F00701AC4635
:10181000ACE8C009ACE8C009ACE8C009ACE8C00954
:101820008D46704710B50446AFF300802046BDE8F2
:101830001040FEF7F2BC0000004870472C0000206A
:101840004FF04070E1EE100A704700006C1800087D
:10185000000000202C000000C401000898180008B7
:101860002C00002064060000E001000801000000D8
:10187000007A030A000000000000000001020304D7
:101880000607080900000000010203040102030426
:08189000060708090000000032
:040000050800018965
:00000001FF
